:020000040800F2
:100000009006002089010008910100089301000872
:100010009501000897010008990100080000000000
:100020000000000000000000000000009B0100082C
:100030009D010008000000009F010008A1010008C8
:10004000A3010008A3010008A3010008A301000800
:10005000A3010008A3010008A3010008A3010008F0
:10006000A3010008A3010008A3010008A3010008E0
:10007000A3010008A3010008A3010008A3010008D0
:10008000A3010008A3010008A3010008A3010008C0
:10009000A3010008A3010008A3010008A3010008B0
:1000A000A3010008A3010008A3010008A3010008A0
:1000B000A3010008A3010008D5070008A301000858
:1000C000A3010008A3010008A3010008A301000880
:1000D000A3010008A3010008A3010008A301000870
:1000E00045020008A3010008A301000800F002F87F
:1000F00000F03AF80AA090E8000C82448344AAF188
:100100000107DA4501D100F02FF8AFF2090EBAE885
:100110000F0013F0010F18BFFB1A43F0010318473B
:100120007C0900009C090000103A24BF78C878C1FF
:10013000FAD8520724BF30C830C144BF04680C60ED
:10014000704700000023002400250026103A28BF35
:1001500078C1FBD8520728BF30C148BF0B60704739
:100160001FB51FBD10B510BD00F031F81146FFF7E7
:10017000F7FF00F075FC00F04FF803B4FFF7F2FF53
:1001800003BC00F057F800000948804709480047C1
:10019000FEE7FEE7FEE7FEE7FEE7FEE7FEE7FEE737
:1001A000FEE7FEE704480549054A064B7047000094
:1001B00075070008ED000008900000209006002060
:1001C00090020020900200207047704770477546EB
:1001D00000F02CF8AE4605006946534620F00700B3
:1001E000854618B020B5FFF7DDFFBDE820404FF091
:1001F00000064FF000074FF000084FF0000B21F011
:100200000701AC46ACE8C009ACE8C009ACE8C009DD
:10021000ACE8C0098D46704710B50446AFF30080C6
:100220002046BDE81040FFF7A8BF00000048704717
:100230002C00002001491820ABBEFEE7260002007A
:100240007047000010B54FF4806000F023F8A0B1B3
:100250004FF48061094800F01EF950B90848007851
:10026000092806D10020064908700121054800F040
:1002700030FB4FF4806000F007F810BD000801402B
:10028000030000200008004001490860704700009A
:100290001404014001460020034A12680A400AB1D2
:1002A000012000E000207047140401400021234990
:1002B0008279002A3AD00A46126803689A430B46AC
:1002C0001A600A1D126803689A430B1D1A600279AE
:1002D00011440A6803681A430A60184A083212680F
:1002E00003689A43154B08331A601A1D1268036895
:1002F0009A43124B0C331A604279102A0ED11A1FFE
:10030000126803681A430D4B08331A601A1D1268ED
:1003100003681A43094B0C331A600DE00749427910
:1003200011440A6803681A430A6005E0027911441F
:100330000A6803689A430A6070470000000401409D
:1003400030B500228B071C0F0F2303FA04F20B4B6E
:100350008C1053F824309343084C8D1044F825300A
:1003600023468C1053F824308C07240F00FA04F431
:100370002343024C8D1044F8253030BD0800014065
:100380002DE9F0410246002500260020002300242C
:10039000002791F803C00CF00F0591F803C00CF092
:1003A000100CBCF1000F03D091F802C04CEA050517
:1003B00091F800C0BCF1000F31D0146800202BE090
:1003C0004FF0010C0CFA00F3B1F800C00CEA030680
:1003D0009E4220D183004FF00F0C0CFA03F7BC4370
:1003E00005FA03FC4CEA040491F803C0BCF1280FA1
:1003F00006D14FF0010C0CFA00FCC2F814C00AE060
:1004000091F803C0BCF1480F05D14FF0010C0CFA74
:1004100000FCC2F810C0401C0828D1D31460B1F809
:1004200000C0BCF1FF0F34DD546800202EE000F165
:10043000080C4FF0010808FA0CF3B1F800C00CEA00
:1004400003069E4221D183004FF00F0C0CFA03F7F4
:10045000BC4305FA03FC4CEA040491F803C0BCF168
:10046000280F05D100F1080C08FA0CF8C2F8148026
:1004700091F803C0BCF1480F07D100F1080C4FF010
:10048000010808FA0CF8C2F81080401C0828CED3E6
:100490005460BDE8F0810246002093680B400BB128
:1004A000012000E000207047416170470161704702
:1004B0001FB50121052000F0C5F84FF40070ADF81C
:1004C0000C0010208DF80F0003208DF80E0003A9FA
:1004D0001B48FFF755FF4FF400711948FFF7E6FF7F
:1004E0004FF48060ADF80C0048208DF80F00032019
:1004F0008DF80E0003A91248FFF742FF0A210020E1
:10050000FFF71EFF4FF48060009000208DF804007C
:100510000C208DF8050001208DF806006846FFF7D5
:10052000C5FE28208DF8080002208DF809008DF8FE
:100530000A0001208DF80B0002A800F031F81FBD61
:100540000008014070B5044600254FF400711348BF
:10055000FFF7AAFF642000F05DFA00BF13E004F08B
:10056000010028B14FF400710C48FFF79FFF04E031
:100570004FF400710948FFF797FF642000F04AFA32
:100580006410681CC5B2082DE9DB4FF40071034804
:10059000FFF78CFF642000F03DFA70BD00080140B9
:1005A00070B5002100230F22C47804B3154C2468D1
:1005B00004F4E064C4F5E064210AC1F10403CA4014
:1005C000447804FA03F184781440214309010E4C65
:1005D0000678A155047804F01F050124AC40057885
:1005E0006D11AD0005F1E025C5F8004109E0047882
:1005F00004F01F050124AC40044D0678761145F83F
:10060000264070BD0CED00E000E400E080E100E079
:1006100002490143024A1160704700000000FA05D8
:100620000CED00E029B1064AD2690243044BDA61BD
:1006300004E0034AD2698243014BDA61704700004B
:100640000010024029B1064A92690243044B9A61A4
:1006500004E0034A92698243014B9A6170470000AB
:100660000010024010B500F001F810BD0CB50020DC
:10067000019000903348006840F4803031490860B0
:1006800000BF3048006800F4003000900198401C22
:100690000190009818B90198B0F5A06FF1D12948E0
:1006A000006800F4003010B10120009001E000204B
:1006B00000900098012843D12348006840F01000C2
:1006C000214908600846006820F0030008600846D9
:1006D000006840F0020008601A4840681949486004
:1006E0000846406848600846406840F480604860BA
:1006F0000846406820F47C1048600846406840F492
:10070000E81048600846006840F08070086000BF4C
:100710000C48006800F000700028F9D009484068D3
:1007200020F00300074948600846406840F0020096
:10073000486000BF0348406800F00C000828F9D169
:100740000CBD00000010024000200240042808D127
:100750004FF0E021096941F004014FF0E0221161FE
:1007600007E04FF0E021096921F004014FF0E02299
:100770001161704710B51348006840F0010011493D
:10078000086008464068104908400E49486008461D
:1007900000680E4908400B4908600846006820F4CC
:1007A000802008600846406820F4FE0048604FF44E
:1007B0001F008860FFF756FF4FF000600449086093
:1007C00010BD0000001002400000FFF8FFFFF6FE21
:1007D00008ED00E010B501211F4800F086F8002860
:1007E00037D001211C4800F071F81C480078401CEB
:1007F0001A4908700846007809280ED100211648C9
:1008000000F067F816480178164802780078401C16
:10081000144B18701448815410BD4FF48061134874
:10082000FFF739FE58B10D480078401E012101FA4A
:1008300000F00B49097808430949087009E00748A6
:100840000078401E01218140054800788843044912
:10085000087000BFE0E7000000080040030000202F
:1008600004000020000000202000002000080140BB
:100870007FB505460C4601210420FFF7D3FEADF8F5
:100880000850ADF804400020ADF80A00ADF80600AD
:1008900001A90D4800F03CF801210B4800F016F8C2
:1008A00001221146084800F029F81E208DF80000AA
:1008B00001208DF801008DF802008DF803006846D4
:1008C000FFF76EFE7FBD000000080040CA430282B1
:1008D000704721B1028842F00102028004E00288E0
:1008E0004FF6FE731A400280704702460020138ABA
:1008F0000B400BB1012000E0002070471AB1838942
:100900000B43838102E083898B438381704700001E
:10091000002202881D4B98420ED01D4B98420BD0EE
:10092000B0F1804F08D01B4B984205D01A4B98422B
:1009300002D01A4B984204D14FF68F731A404B885D
:100940001A43174B984207D0164B984204D04FF6E3
:10095000FF431A40CB881A4302808B8883850B881B
:1009600003850A4B98420BD0094B984208D00E4B96
:10097000984205D00D4B984202D00D4B984201D1C0
:100980000B7A03860123838270470000002C01400C
:10099000003401400004004000080040000C00400A
:1009A000001000400014004000400140004401409D
:1009B0000048014070B505460E46002404E0285D5D
:1009C000FFF7C0FD601CC4B2B442F8DB70BD00008C
:1009D00010B56FF00400FFF7B9FE0A4800680A4935
:1009E000B0FBF1F0094908700846007800EB4001BF
:1009F000C1EBC0104FF6FF7101EAC0000449088046
:100A000010BD00000C00002000127A00060000203B
:100A1000080000200146114A12784A434FF0E023B3
:100A20005A6100229A611A46126942F001021A6163
:100A300000BF4FF0E022106900F001021AB100F48B
:100A40008032002AF5D04FF0E022126922F0010234
:100A50004FF0E0231A6100229A61704706000020DF
:100A60004FF4A060FFF7D4FDFFF7B2FFFFF720FDC2
:100A700047216B20FFF7FCFE0AE0064800780A28B1
:100A800006DD0020034908700B210348FFF792FFA1
:100A9000F3E700000000002020000020BC0A00084E
:100AA000000000202000000028010008DC0A0008E7
:100AB000200000207006000044010008000000092A
:100AC000000000000000000000A24A040000000036
:0C0AD000000000000102030406070809F2
:04000005080000ED02
:00000001FF
